S01100004361666574656972612E737265638F
S11300000C944C000C949B010C9424030C946900F4
S11300100C9469000C9469000C9469000C946900B8
S11300200C9469000C9469000C9469000C9484018C
S11300300C9469000C9469000C9469000C94690098
S11300400C9469000C9469000C944D010C946900A3
S11300500C9469000C9469000C9469000C94690078
S11300600C9469000C946900CF01F2011502380266
S11300705B027E02A1027C038D03C20303044A04D3
S11300807F04C00407053C057D050C074D079D074B
S1130090FC072B086908980811241FBECFEFD8E08D
S11300A0DEBFCDBF17E0A0E0B1E0EAEDFFE102C0A2
S11300B005900D92A630B107D9F727E0A6E0B7E086
S11300C001C01D92A132B207E1F70E94D10A0C943B
S11300D0EB0F0C940000611104C095B19E7F95B99B
S11300E003C095B1916095B99BB19F70282F207F73
S11300F0922B9BB945E04A95F1F7000095B19260C7
S113010095B995E09A95F1F7000095B19D7F95B961
S113011040EF4A95F1F79BB140E1849F900111248F
S11301209F70292B2BB995E09A95F1F7000095B1B2
S1130130926095B945E04A95F1F7000095B19D7F2D
S113014095B990EF9A95F1F7611108C0843030F4B5
S11301508FE39FE10197F1F700C00000089585B196
S11301608E7F85B985B18D7F85B92FEF89EF90E0BA
S1130170215080409040E1F700C000008BB18F70A7
S113018080638BB925E02A95F1F7000085B1826080
S113019085B985E08A95F1F7000085B18D7F85B931
S11301A090EF9A95F1F78FE19EE40197F1F700C083
S11301B0000095E09A95F1F7000085B1826085B959
S11301C025E02A95F1F7000085B18D7F85B980EF90
S11301D08A95F1F78FE193E00197F1F700C00000F1
S11301E095E09A95F1F7000085B1826085B925E024
S11301F02A95F1F7000085B18D7F85B980EF8A9546
S1130200F1F78BB18F7080628BB995E09A95F1F715
S1130210000085B1826085B925E02A95F1F70000D8
S113022085B18D7F85B980EF8A95F1F760E088E22A
S11302300E946B0060E088E00E946B0060E081E057
S11302400E946B0060E08CE00E946B0060E080E83C
S11302500E946B000895CF93DF93EC0104C061E02A
S11302600E946B00219688818111F9CFDF91CF9193
S113027008958091C000807208958093C600089507
S1130280FC0107C09091C00095FFFCCF8093C6008D
S1130290319680818111F6CF08951F920F920FB687
S11302A00F9211242F933F934F935F936F937F93F8
S11302B08F939F93AF93BF93CF93EF93FF93C0918B
S11302C0C60086E091E00E9440010E943901882323
S11302D0E1F38C2F0E943D018FEB93E00E944001DB
S11302E0C093C600FF91EF91CF91BF91AF919F91C1
S11302F08F917F916F915F914F913F912F910F90CB
S11303000FBE0F901F9018951F920F920FB60F9269
S113031011248F939F938091090790910A07019666
S113032090930A07809309079F918F910F900FBEB6
S11303300F901F9018951F920F920FB60F921124D1
S11303402F933F934F935F936F937F938F939F93D9
S1130350AF93BF93EF93FF9380910B07813009F024
S113036017C110920B07809114078150823008F056
S113037012C180910E0790910F07019690930F0779
S113038080930E07E0910E07F0910F073197E73045
S1130390F10508F000C1EC5CFF4F0C94FB0C88B134
S11303A0816088B988B18D7F88B988B18B7F88B91D
S11303B088B1877F88B960E080E80E946B0084E19F
S11303C091E00E942B0160E080EC0E946B0089E2C6
S11303D091E00E942B0181E090E090930D078093BF
S11303E00C07D9C088B18E7F88B988B1826088B97A
S11303F088B18B7F88B988B1877F88B960E080E84D
S11304000E946B0080E491E00E942B0160E080EC8C
S11304100E946B0087E591E00E942B0182E090E04E
S113042090930D0780930C07B6C088B1816088B99A
S113043088B1826088B988B18B7F88B988B1877F99
S113044088B960E080E80E946B0082E791E00E9436
S11304502B0160E080EC0E946B0081E991E00E9436
S11304602B0183E090E090930D0780930C0793C0D9
S113047088B18E7F88B988B18D7F88B988B184604E
S113048088B988B1877F88B960E080E80E946B00F2
S113049083EB91E00E942B0160E080EC0E946B00F2
S11304A08CEC91E00E942B0184E090E090930D0786
S11304B080930C0770C088B1816088B988B18D7F42
S11304C088B988B1846088B988B1877F88B960E0C9
S11304D080E80E946B0088EE91E00E942B0160E0AE
S11304E080EC0E946B0089E092E00E942B0185E081
S11304F090E090930D0780930C074DC088B18E7FD8
S113050088B988B1826088B988B1846088B988B1B3
S1130510877F88B960E080E80E946B0085E292E002
S11305200E942B0160E080EC0E946B008AE392E061
S11305300E942B0186E090E090930D0780930C07B6
S11305402AC088B1816088B988B1826088B988B1CD
S1130550846088B988B1877F88B960E080E80E94A8
S11305606B0082E592E00E942B0160E080EC0E9427
S11305706B008EE692E00E942B0187E090E090935E
S11305800D0780930C0710920F0710920E0703C0FB
S113059081E080930B07FF91EF91BF91AF919F9101
S11305A08F917F916F915F914F913F912F910F9018
S11305B00FBE0F901F901895809104019091050132
S11305C09C01245031092230310530F182309105EB
S11305D0D1F1029724F180910201909103019C01D1
S11305E02450310922303105E8F082309105E9F0D8
S11305F00297F4F080910001909101019C01245034
S1130600310922303105B8F082309105B9F00297F2
S1130610C4F489E090E0089581E090E0089583E0D7
S113062090E0089584E090E0089585E090E00895D6
S113063086E090E0089587E090E0089588E090E0F7
S1130640089580E090E008951F920F920FB60F92E4
S11306501124EF92FF920F931F932F933F934F9385
S11306605F936F937F938F939F93AF93BF93EF9316
S1130670FF93CF93DF93CDB7DEB7C654D109DEBF66
S1130680CDBF80911407843089F483E2E5E8F2E079
S1130690DE01119601900D928A95E1F7CE01019643
S11306A00E94400181E08093140794C21F9B6CC296
S11306B00E94DC028C011F938F9388EA92E09F933F
S11306C08F93CE0101967C019F938F930E94010D1D
S11306D0C7010E94400110920B070F900F900F90DA
S11306E00F900F900F900A30110508F073C2F801B3
S11306F0E55CFF4F0C94FB0C88E3EBEAF2E0DE01CF
S1130700119601900D928A95E1F7CE0101960E940F
S1130710400183E0809314075DC280910C0790919F
S11307200D070197F1F460E080E80E946B0083EE0E
S113073092E00E942B0160E080EC0E946B0088ED47
S113074093E00E942B0184E4EDEFF2E0DE011196C8
S113075001900D928A95E1F7CE0101960E94400125
S113076039C289E3E1E4F3E0DE01119601900D92D0
S11307708A95E1F7CE0101960E94400183E08093BF
S1130780140728C280910C0790910D07019761F01E
S113079080910C0790910D07029731F080910C071E
S11307A090910D070797F1F460E080E80E946B00D8
S11307B083EE92E00E942B0160E080EC0E946B00CB
S11307C088ED93E00E942B0184E4EDEFF2E0DE017A
S11307D0119601900D928A95E1F7CE0101960E943F
S11307E04001F8C189E3E1E4F3E0DE0111960190F0
S11307F00D928A95E1F7CE0101960E94400183E0B3
S113080080931407E7C180910C0790910D0701971D
S113081091F080910C0790910D07029761F08091FF
S11308200C0790910D07039731F080910C0790917C
S11308300D070797F1F460E080E80E946B0083EEF7
S113084092E00E942B0160E080EC0E946B0088ED36
S113085093E00E942B0184E4EDEFF2E0DE011196B7
S113086001900D928A95E1F7CE0101960E94400114
S1130870B1C189E3E1E4F3E0DE01119601900D9248
S11308808A95E1F7CE0101960E94400183E08093AE
S11308901407A0C180910C0790910D070497F1F4FF
S11308A060E080E80E946B008AE793E00E942B01DD
S11308B060E080EC0E946B0089ED93E00E942B01C4
S11308C086E4E8EAF4E0DE01119601900D928A953F
S11308D0E1F7CE0101960E9440017CC189E3E9E879
S11308E0F3E0DE01119601900D928A95E1F7CE01B5
S11308F001960E94400183E0809314076BC18091AC
S11309000C0790910D07029761F080910C0790916C
S11309100D07049731F080910C0790910D0705970E
S1130920F1F460E080E80E946B008AE793E00E94A3
S11309302B0160E080EC0E946B0089ED93E00E9443
S11309402B0186E4E8EAF4E0DE01119601900D92B1
S11309508A95E1F7CE0101960E9440013BC189E3EB
S1130960E9E8F3E0DE01119601900D928A95E1F732
S1130970CE0101960E94400183E0809314072AC1AE
S113098080910C0790910D07029791F080910C07CC
S113099090910D07039761F080910C0790910D07DA
S11309A0049731F080910C0790910D070597F1F4AD
S11309B060E080E80E946B008AE793E00E942B01CC
S11309C060E080EC0E946B0089ED93E00E942B01B3
S11309D086E4E8EAF4E0DE01119601900D928A952E
S11309E0E1F7CE0101960E944001F4C089E3E9E8F1
S11309F0F3E0DE01119601900D928A95E1F7CE01A4
S1130A0001960E94400183E080931407E3C0809123
S1130A100C0790910D070697F1F460E080E80E94BE
S1130A206B0082EC93E00E942B0160E080EC0E945A
S1130A306B0080ED93E00E942B018CE4EBEEF3E07D
S1130A40DE01119601900D928A95E1F7CE0101968F
S1130A500E944001BFC088E3E7E3F4E0DE011196A1
S1130A6001900D928A95E1F7CE0101960E94400112
S1130A7083E080931407AEC080910C0790910D071A
S1130A80059761F080910C0790910D07069731F05E
S1130A9080910C0790910D070797F1F460E080E8CE
S1130AA00E946B0082EC93E00E942B0160E080ECDA
S1130AB00E946B0080ED93E00E942B018CE4EBEE2E
S1130AC0F3E0DE01119601900D928A95E1F7CE01D3
S1130AD001960E9440017EC088E3E7E3F4E0DE0172
S1130AE0119601900D928A95E1F7CE0101960E942C
S1130AF0400183E0809314076DC080910C079091AE
S1130B000D07039791F080910C0790910D070597BD
S1130B1061F080910C0790910D07069731F0809158
S1130B200C0790910D070797F1F460E080E80E94AC
S1130B306B0082EC93E00E942B0160E080EC0E9449
S1130B406B0080ED93E00E942B018CE4EBEEF3E06C
S1130B50DE01119601900D928A95E1F7CE0101967E
S1130B600E94400137C088E3E7E3F4E0DE01119618
S1130B7001900D928A95E1F7CE0101960E94400101
S1130B8083E08093140726C080910B07882311F11A
S1130B9060E080E80E946B008FE694E00E942B01E5
S1130BA060E080EC0E946B0086ED93E00E942B01D4
S1130BB085E2E3E8F4E0DE01119601900D928A9556
S1130BC0E1F7CE0101960E9440011092080784E0EB
S1130BD080931407CA5BDF4F0FB6F894DEBF0FBED5
S1130BE0CDBFDF91CF91FF91EF91BF91AF919F91D5
S1130BF08F917F916F915F914F913F912F911F91B1
S1130C000F91FF90EF900F900FBE0F901F901895CB
S1130C108230910581F083309105C1F0019701F58F
S1130C206130710521F485B1846085B9089585B179
S1130C308B7F85B908956130710521F485B1806198
S1130C4085B9089585B18F7E85B9089561307105A0
S1130C5021F485B1806285B9089585B18F7D85B908
S1130C6008958130910519F424E02093B100892B73
S1130C7021F41092B2001092B1000895CF93DF9343
S1130C80CDB7DEB7E2970FB6F894DEBF0FBECDBF87
S1130C9088B18F7D88B910920B0760E080E80E94CC
S1130CA06B008EEE94E00E942B0160E080EC0E94C9
S1130CB06B0089ED93E00E942B018091070781115D
S1130CC010C085E1E1E0F5E0DE01119601900D929E
S1130CD08A95E1F7CE0101960E94400181E080935C
S1130CE00707349B05C01092060781E08093140720
S1130CF0E2960FB6F894DEBF0FBECDBFDF91CF9161
S1130D000895CF93DF93CDB7DEB7C654D1090FB69C
S1130D10F894DEBF0FBECDBF88B1806288B983E08E
S1130D208DBB80910607811120C060E080E80E949D
S1130D306B0086E195E00E942B0160E080EC0E944C
S1130D406B0085E295E00E942B0188E3E7E3F5E080
S1130D50DE01119601900D928A95E1F7CE0101967C
S1130D600E94400181E080930607349904C01092E8
S1130D700707109214071F9B10C088E4EFE6F5E004
S1130D80DE01119601900D928A95E1F7CE0101964C
S1130D900E94400182E080931407CA5BDF4F0FB6C4
S1130DA0F894DEBF0FBECDBFDF91CF9108951F9998
S1130DB003C081E0809314070895CF93DF93CDB7E8
S1130DC0DEB7C055D1090FB6F894DEBF0FBECDBF54
S1130DD08DE08093810060E080E80E946B0087EBE7
S1130DE095E00E942B0160E080EC0E946B008CEC8B
S1130DF095E00E942B0110920A0710920907E091D6
S1130E000C07F0910D073197E730F10508F0E0C1C8
S1130E10EB5BFF4F0C94FB0C81E090E00E943106E9
S1130E208091090790910A070397D4F380E090E03A
S1130E300E94310610920A071092090761E070E0DF
S1130E4081E090E00E9408068091040190910501E0
S1130E5006979093050180930401E5E1F7E0808112
S1130E60918101969183808320E030E040EC5FE340
S1130E7060911007709111078091120790911307E8
S1130E800E945E0B60931007709311078093120702
S1130E909093130726E030E09DC181E090E00E942A
S1130EA031068091090790910A070397D4F380E0F3
S1130EB090E00E94310610920A071092090761E03F
S1130EC070E082E090E00E94080661E070E081E05A
S1130ED090E00E9408068091040190910501039717
S1130EE09093050180930401809102019091030184
S1130EF003979093030180930201E5E1F7E0828177
S1130F00938101969383828320E030E040E050E4B3
S1130F106091100770911107809112079091130747
S1130F200E945E0B60931007709311078093120761
S1130F309093130723E030E04DC181E090E00E94DC
S1130F4031068091090790910A070397D4F380E052
S1130F5090E00E94310610920A071092090761E09E
S1130F6070E083E090E00E94080661E070E082E0B7
S1130F7090E00E94080661E070E081E090E00E9449
S1130F800806809104019091050102979093050150
S1130F908093040180910201909103010297909340
S1130FA00301809302018091000190910101029755
S1130FB09093010180930001E5E1F7E0848195813C
S1130FC001969583848320E030E040E350E460910F
S1130FD010077091110780911207909113070E94D6
S1130FE05E0B609310077093110780931207909320
S1130FF0130722E030E0EEC061E070E082E090E0B0
S11310000E94080680910201909103010697909333
S1131010030180930201E5E1F7E08681978101965F
S11310209783868320E030E040E85FE36091100717
S11310307091110780911207909113070E945E0B23
S1131040609310077093110780931207909313070E
S113105026E030E0BFC061E070E083E090E00E94F1
S1131060080661E070E082E090E00E94080680914A
S1131070020190910301039790930301809302016D
S11310808091000190910101039790930101809355
S11310900001E5E1F7E080859185019691878087DD
S11310A026E636E646EE5FE360911007709111077D
S11310B080911207909113070E945E0B60931007B2
S11310C070931107809312079093130723E030E085
S11310D081C061E070E083E090E00E9408068091A6
S11310E00001909101010697909301018093000102
S11310F0E5E1F7E08285938501969387828720E076
S113110030E040EC5FE3609110077091110780912B
S11311101207909113070E945E0B6093100770935F
S11311201107809312079093130726E030E052C012
S113113081E090E00E9431068091090790910A07AE
S11311400397D4F380E090E00E94310610920A07DE
S11311501092090761E070E083E090E00E940806C5
S113116061E070E081E090E00E9408068091040153
S11311709091050103979093050180930401809158
S11311800001909101010397909301018093000164
S1131190E5E1F7E08485958501969587848726E6C1
S11311A036E646E050E46091100770911107809193
S11311B01207909113070E945E0B609310077093BF
S11311C01107809312079093130723E030E002C0C5
S11311D020E030E08091090790910A078217930775
S11311E0CCF360E070E081E090E00E94080660E0EB
S11311F070E082E090E00E94080660E070E083E026
S113120090E00E940806E1E8F0E0108280818860A6
S1131210808310920A071092090760E080E80E9418
S11312206B0081EE95E00E942B0160E080EC0E944F
S11312306B0084EF95E00E942B0182E1E8E0F6E088
S1131240DE01119601900D928A95E1F7CE01019687
S11312500E9440015A99FECF60E080E80E946B0032
S11312608AE196E00E942B0160E080EC0E946B0012
S11312708BE296E00E942B0181E080931407C05B0F
S1131280DF4F0FB6F894DEBF0FBECDBFDF91CF9115
S113129008952F923F924F925F926F927F928F9216
S11312A09F92AF92BF92CF92DF92EF92FF920F93F1
S11312B01F93CF93DF93CDB7DEB7C654D1090FB6D2
S11312C0F894DEBF0FBECDBF8091080781114FC1D6
S11312D00F2EF5E1AF2EF7E0BF2EF02DF501608162
S11312E07181072E000C880B990B0E94020C20E0E0
S11312F030E040EC5FE30E948E0C6B017C010E94A5
S1131300CA0B862E772EA7019601C701B6010E944B
S11313105D0B20E030E048EC52E40E948E0C0E9409
S1131320CA0B962E672EF501808191819F938F932E
S11313300F2EF8EAEF2EF2E0FF2EF02DFF92EF923F
S11313408E010F5F1F4F1F930F930E94010DC80161
S11313500E9440018AE3EDE3F6E0D80101900D928A
S11313608A95E1F7C8010E9440017F928F92FF9213
S1131370EF921F930F930E94010DC8010E94400138
S11313800F2EFCE2CF2ED12CF02DDA82C982C801B7
S11313900E9440016F929F92FF92EF921F930F93CE
S11313A00E94010DC8010E9440010F2EFDE02F2E66
S11313B0FAE03F2EF02D3A8229821B82C8010E9456
S11313C04001F50162817381072E000C880B990B93
S11313D00E94020C20E030E040EC5FE30E948E0C9F
S11313E02B013C010E94CA0B962E872EA301920169
S11313F0C301B2010E945D0B20E030E048EC52E4EE
S11314000E948E0C0E94CA0B762E672EF5018281F3
S113141093819F938F93FF92EF921F930F930E9458
S1131420010DC8010E9440018FE3E7E7F6E0D8010F
S113143001900D928A95E1F7C8010E9440018F92B4
S11314409F92FF92EF921F930F930E94010DC80188
S11314500E944001DA82C982C8010E9440016F9251
S11314607F92FF92EF921F930F930E94010D0FB68C
S1131470F894DEBF0FBECDBFC8010E9440013A827E
S113148029821B82C8010E94400180ED92E0909362
S11314900501809304018CE291E090930301809311
S11314A0020184EA91E0909301018093000140904D
S11314B01007509011076090120770901307C30132
S11314C0B2010E94CA0B4B015C01072E000C880B71
S11314D0990B0E94020C9B01AC01C301B2010E9452
S11314E05D0B20E030E048EC52E40E948E0C0E9438
S11314F0CA0B762E672E81E2E6EBF6E0D801019066
S11315000D928A95E1F7C8010E9440019F928F9243
S1131510FF92EF921F930F930E94010DC8010E9446
S11315204001DA82C982C8010E9440016F927F9211
S1131530FF92EF921F930F930E94010DC8010E9426
S113154040013A8229821B82C8010E944001109204
S1131550100710921107109212071092130781E0DE
S1131560809308070FB6F894DEBF0FBECDBFCA5BE9
S1131570DF4F0FB6F894DEBF0FBECDBFDF91CF9122
S11315801F910F91FF90EF90DF90CF90BF90AF909D
S11315909F908F907F906F905F904F903F902F908F
S11315A00895CF93DF93CDB7DEB7E2970FB6F894E3
S11315B0DEBF0FBECDBF8FE384B98FE287B982EF60
S11315C08AB91092C50087E68093C40086E08093B0
S11315D0C20088E98093C10010928000E1E8F0E045
S11315E01082109285001092840089E09DE390930C
S11315F0890080938800808188608083EFE6F0E032
S1131600808182608083A0EBB0E01C92E1EBF0E08B
S113161010821092B2008DE78093B30082E48C9321
S1131620108289E080936900789488B1816088B9D8
S113163081E090E090930D0780930C070E94AF0027
S11316408FE2E7EDF6E0DE01119601900D928A95A6
S1131650E1F7CE0101960E944001E5E1F7E0118235
S113166010821382128215821482178216821186C6
S1131670108613861286158614861092140780919C
S11316801407823089F028F4882341F0813049F02E
S1131690F6CF833061F0843069F0F1CF0E943E06CA
S11316A0EECF0E948106EBCF0E94D706E8CF0E94BE
S11316B0DD06E5CF0E944909E2CF5058BB27AA278F
S11316C00E94750B0C94540C0E94460C38F00E9436
S11316D04D0C20F039F49F3F19F426F40C94430C7C
S11316E00EF4E095E7FB0C943D0CE92F0E94650C89
S11316F058F3BA17620773078407950720F079F443
S1131700A6F50C94870C0EF4E0950B2EBA2FA02DA1
S11317100B01B90190010C01CA01A0011124FF279A
S1131720591B99F0593F50F4503E68F11A16F04095
S1131730A22F232F342F4427585FF3CF4695379594
S11317402795A795F0405395C9F77EF41F16BA0B59
S1131750620B730B840BBAF09150A1F0FF0FBB1F07
S1131760661F771F881FC2F70EC0BA0F621F731F50
S1131770841F48F4879577956795B795F7959E3FAD
S113178008F0B0CF9395880F08F09927EE0F97953E
S1131790879508950E94D10B6894B1110C94880C1C
S11317A008950E946D0C88F09F5798F0B92F9927DF
S11317B0B751B0F0E1F0660F771F881F991F1AF038
S11317C0BA95C9F714C0B13091F00E94870CB1E00A
S11317D008950C94870C672F782F8827B85F39F009
S11317E0B93FCCF3869577956795B395D9F73EF4D1
S11317F090958095709561957F4F8F4F9F4F089579
S1131800E89409C097FB3EF4909580957095619596
S11318107F4F8F4F9F4F9923A9F0F92F96E9BB274C
S11318209395F695879577956795B795F111F8CFC8
S1131830FAF4BB0F11F460FF1BC06F5F7F4F8F4F33
S11318409F4F16C0882311F096E911C0772321F029
S11318509EE8872F762F05C0662371F096E8862FC1
S113186070E060E02AF09A95660F771F881FDAF718
S1131870880F9695879597F9089597F99F6780E85B
S113188070E060E008959FEF80EC089500240A94CE
S11318901616170618060906089500240A94121647
S11318A01306140605060895092E0394000C11F47A
S11318B0882352F0BB0F40F4BF2B11F460FF04C027
S11318C06F5F7F4F8F4F9F4F089557FD9058440F80
S11318D0551F59F05F3F71F04795880F97FB991F8B
S11318E061F09F3F79F08795089512161306140648
S11318F0551FF2CF4695F1DF08C0161617061806D5
S1131900991FF1CF86957105610508940895E894AF
S1131910BB2766277727CB0197F908950E94A10C6E
S11319200C94540C0E94460C38F00E944D0C20F08C
S1131930952311F00C943D0C0C94430C11240C943D
S1131940880C0E94650C70F3959FC1F3950F50E0CD
S1131950551F629FF001729FBB27F00DB11D639F5D
S1131960AA27F00DB11DAA1F649F6627B00DA11D03
S1131970661F829F2227B00DA11D621F739FB00DA9
S1131980A11D621F839FA00D611D221F749F332719
S1131990A00D611D231F849F600D211D822F762FB2
S11319A06A2F11249F5750409AF0F1F088234AF08F
S11319B0EE0FFF1FBB1F661F771F881F91505040FB
S11319C0A9F79E3F510580F00C943D0C0C94880CB3
S11319D05F3FE4F3983ED4F3869577956795B79582
S11319E0F795E7959F5FC1F7FE2B880F911D96959C
S11319F0879597F90895EE0FFF1F0590F491E02D58
S1131A000994AEE0B0E0E7E0FDE00C94C20F0D896C
S1131A101E8986E08C831A8309838FEF9FE79E8358
S1131A208D83AE01475E5F4F6F89788DCE0101963D
S1131A300E94230DEF81F885E00FF11F10822E968E
S1131A40E4E00C94DE0FABE0B0E0E9E2FDE00C94DE
S1131A50B40F6C017B018A01FC0117821682838119
S1131A6081FFCCC1CE0101963C01F6019381F701BF
S1131A7093FD859193FF81917F01882309F4BAC175
S1131A80853239F493FD859193FF81917F018532ED
S1131A9029F4B60190E00E941A0FE7CF912C212C73
S1131AA0312CFFE1F315D8F08B3279F038F4803221
S1131AB079F08332A1F4232D20611DC08D3261F0B1
S1131AC0803369F4232D216016C0832D8260382E63
S1131AD0E32DE4603E2E2AC0F32DF8601DC037FCD0
S1131AE02DC020ED280F2A3040F08E32B9F436FC98
S1131AF081C1232D2064322E19C036FE06C08AE02F
S1131B00989E200D1124922E11C0EAE02E9E200DE5
S1131B101124222EF32DF0623F2E08C08C3621F4BE
S1131B20832D8068382E02C0883641F4F70193FD76
S1131B30859193FF81917F018111B3CF982F9F7D70
S1131B409554933028F40C5F1F4F9FE399830DC085
S1131B50833631F0833771F0833509F059C021C0E1
S1131B60F801808189830E5F1F4F88248394912C10
S1131B70530113C02801F2E04F0E511CF801A0805C
S1131B80B18036FE03C0692D70E002C06FEF7FEFB5
S1131B90C5010E940F0F4C018201F32DFF773F2EE8
S1131BA016C0280122E0420E511CF801A080B18029
S1131BB036FE03C0692D70E002C06FEF7FEFC501F0
S1131BC00E94040F4C01F32DF0683F2E820133FC78
S1131BD01BC0822D90E088169906B0F4B60180E20D
S1131BE090E00E941A0F2A94F4CFF50137FC8591F6
S1131BF037FE81915F01B60190E00E941A0F211017
S1131C002A9421E0821A91088114910471F7E8C0A2
S1131C10843611F0893641F5F80137FE07C060813A
S1131C207181828193810C5F1F4F08C06081718133
S1131C30072E000C880B990B0E5F1F4FF32DFF76B8
S1131C403F2E97FF09C090958095709561957F4FC1
S1131C508F4F9F4FF0683F2E2AE030E0A3010E948F
S1131C60560F882E861845C0853731F4232D2F7ED4
S1131C70B22E2AE030E025C0932D997FB92E8F36FD
S1131C80C1F018F4883579F0B5C0803719F0883779
S1131C9021F0B0C0E92FE061BE2EB4FE0DC0FB2DD3
S1131CA0F460BF2E09C034FE0AC0292F2660B22E6C
S1131CB006C028E030E005C020E130E002C020E1A9
S1131CC032E0F801B7FE07C060817181828193819F
S1131CD00C5F1F4F06C06081718180E090E00E5F51
S1131CE01F4FA3010E94560F882E8618FB2DFF77E5
S1131CF03F2E36FE0DC0232D2E7FA22E891458F4BC
S1131D0034FE0BC032FC09C0832D8E7EA82E05C084
S1131D10B82CA32C03C0B82C01C0B92CA4FE0FC04E
S1131D20FE01E80DF11D8081803321F49A2D997E06
S1131D30A92E09C0A2FE06C0B394B39404C08A2D90
S1131D40867809F0B394A3FC11C0A0FE06C0B214B7
S1131D5088F4280C922C9B180EC0B21460F4B601BF
S1131D6080E290E00E941A0FB394F7CFB21418F4F3
S1131D702B1802C0982C212CA4FE10C0B60180E3BD
S1131D8090E00E941A0FA2FE17C0A1FC03C088E7CE
S1131D9090E002C088E590E0B6010CC08A2D8678F8
S1131DA059F0A1FE02C08BE201C080E2A7FC8DE2E3
S1131DB0B60190E00E941A0F891438F4B60180E34A
S1131DC090E00E941A0F9A94F7CF8A94F301E80DD9
S1131DD0F11D8081B60190E00E941A0F8110F5CFA9
S1131DE0222009F442CEB60180E290E00E941A0F4C
S1131DF02A94F6CFF6018681978102C08FEF9FEF78
S1131E002B96E2E10C94D00FFC01059061507040D8
S1131E100110D8F7809590958E0F9F1F0895FC01AF
S1131E206150704001900110D8F7809590958E0F05
S1131E309F1F08950F931F93CF93DF93FB0123817B
S1131E4021FD03C08FEF9FEF2CC022FF16C04681F7
S1131E505781248135814217530744F4A081B1810D
S1131E609D012F5F3F4F318320838C9326813781DF
S1131E702F5F3F4F3783268314C08B01EC01FB0196
S1131E800084F185E02D0995892BE1F6D801169699
S1131E908D919C911797019617969C938E93169704
S1131EA0CE01DF91CF911F910F910895FA01AA27D6
S1131EB0283051F1203181F1E8946F936E7F6E5F89
S1131EC07F4F8F4F9F4FAF4FB1E03ED0B4E03CD037
S1131ED0670F781F891F9A1FA11D680F791F8A1F1A
S1131EE0911DA11D6A0F711D811D911DA11D20D081
S1131EF009F468943F912AE0269F11243019305D3B
S1131F003193DEF6CF010895462F4770405D41932B
S1131F10B3E00FD0C9F7F6CF462F4F70405D4A3378
S1131F2018F0495D31FD4052419302D0A9F7EACF40
S1131F30B4E0A6959795879577956795BA95C9F76F
S1131F4000976105710508959B01AC010A2E069462
S1131F505795479537952795BA95C9F7620F731F1B
S1131F60841F951FA01D08952F923F924F925F9258
S1131F706F927F928F929F92AF92BF92CF92DF9295
S1131F80EF92FF920F931F93CF93DF93CDB7DEB7FA
S1131F90CA1BDB0B0FB6F894DEBF0FBECDBF09948E
S1131FA02A88398848885F846E847D848C849B84E5
S1131FB0AA84B984C884DF80EE80FD800C811B81F3
S1131FC0AA81B981CE0FD11D0FB6F894DEBF0FBE22
S10D1FD0CDBFED010895F894FFCF92
S1131FDA0A000A000800566F63EA20656E76696F84
S1131FEA753A2000312D43616665205075726F2061
S1131FFA20202020202020200056616C6F7220525D
S113200A24312C353020202020202020202020009C
S113201A322D436166652B4C656974652020202046
S113202A2020202020200056616C6F722052243216
S113203A2C30302020202020202020202020202066
S113204A2000332D436166652B4C656974652B4307
S113205A686F636F6C617465202020202020202023
S113206A0056616C6F72205224322C37352020209E
S113207A2020202020202020202020202020202052
S113208A202000342D4C65697465202020202020EE
S113209A20202020202020202020200056616C6F40
S11320AA72205224312C303020202020202020205D
S11320BA2020202020202000352D4C656974652BB2
S11320CA43686F636F6C6174652020202020202090
S11320DA20202020202020200056616C6F7220527C
S11320EA24312C3830202020202020202020202099
S11320FA2020202000362D43686F636F6C6174655D
S113210A2020202020202020200056616C6F72207D
S113211A5224312C35302020202020202020202039
S113212A2000372D4C656974652F43686F636F6CA3
S113213A6174652020202020202020202000566160
S113214A6C6F72205224312C383020202020202019
S113215A20202020004D6F646F20726561626173D4
S113216A746563696D656E746F2066696E616C6906
S113217A7A61646F200D0A00256400546F646F73DA
S113218A206F7320696E6772656469656E7465731E
S113219A20646973706F6E69766569732E20507254
S11321AA65706172616E646F206265626964612040
S11321BA0D0A004E616F20686120636166652070B4
S11321CA75726F202020202020202020004E616F6D
S11321DA206861206361666520646973706F6E6943
S11321EA76656C2E20416775617264616E646F2036
S11321FA636C69656E74652073656C6563696F6E7B
S113220A6172206F7574726F2063616665200D0AAE
S113221A004861206573746F757175652070617209
S113222A612066617A6572206F2063616665207039
S113223A75726F2E20507265706172616E646F20C0
S113224A6F2063616665200D0A0053656D204C6535
S113225A697465205075726F004861206573746FE4
S113226A7571756520706172612066617A65722084
S113227A6F2070656469646F2E2050726570617294
S113228A616E646F20612062656469646120200D57
S113229A0A0053656D2043686F63205075726F009E
S11322AA2020202020202020202020202020202020
S11322BA20202020202020202020004E616F20682A
S11322CA61206573746F7571756520646520636830
S11322DA6F636F6C6174652E204167756172646106
S11322EA6E646F207573756172696F2073656C65AE
S11322FA63696F6E6172206F7574726F20706564A2
S113230A69646F200D0A004861206573746F7571E2
S113231A756520706172612066617A6572206F202A
S113232A70656469646F2E20507265706172616EA3
S113233A646F206120626564696461200D0A004D3E
S113234A4F444F205245424153544543494D454E0B
S113235A544F00456E7472616E646F206E6F206D07
S113236A6F646F20726561626173746563696D6518
S113237A6E746F20200D0A004E616F20686120651B
S113238A73746F75717565206465206C656974650D
S113239A2E20416775617264616E646F207573756E
S11323AA6172696F2073656C6563696F6E6172200F
S11323BA6F7574726F2063616665200D0A00446547
S11323CA736C69676164612020202020202020200A
S11323DA004DE17175696E61204465736C696761CA
S11323EA6461200D0A004DE17175696E61204C69C2
S11323FA67616461004573636F6C68612061206280
S113240A65626964613A004DE17175696E61204CD7
S113241A69676164612E20416775617264616E64E3
S113242A6F20636C69656E74652073656C65636996
S113243A6F6E61722070656469646F200D0A004DC5
S113244A617175696E612045737461646F202D2012
S113245A436F6D20636F706F2E20416775617264DC
S113246A616E646F206F20626F74616F20454E54F1
S113247A455220736572207072657373696F6E6159
S113248A646F2E200D0A00507265706172616E6469
S113249A6F20202020202020202020004167756101
S11324AA7264652E2E2E2020202020202020202019
S11324BA004265626964612050726F6E7461212002
S11324CA2020200052657469726520736575204363
S11324DA6F706F2020202000426562696461207059
S11324EA726F6E74612E200D0A00417065727465F4
S11324FA2053656C65637420702F004573636F6C99
S113250A68657220612062656269646100205869A5
S113251A6361726173206465204361666520507546
S113252A726F2E2056616C6F7220617272656361DC
S113253A6461646F20636F6D2065737461206265E2
S113254A626964613A200020586963617261732088
S113255A6465204361666520636F6D204C65697408
S113256A652E2056616C6F722061727265636164B4
S113257A61646F20636F6D206573746120626562A4
S113258A6964613A20004F2076616C6F7220746F1F
S113259A74616C206172726563616461646F206640
S11325AA6F693A200D0A0053696D756C6163616F36
S11325BA2050726F7465757320496E69636961642A
S11325CA612E205265616C697A616E646F2053656D
S10925DA7475700D0A0087
S9030000FC
